{
  "_format": "hh-sol-artifact-1",
  "contractName": "BuyMeACoffee",
  "sourceName": "contracts/BuyMeACoffee.sol",
  "abi": [
    {
      "inputs": [],
      "stateMutability": "nonpayable",
      "type": "constructor"
    },
    {
      "anonymous": false,
      "inputs": [
        {
          "indexed": true,
          "internalType": "address",
          "name": "from",
          "type": "address"
        },
        {
          "indexed": false,
          "internalType": "uint256",
          "name": "timestamp",
          "type": "uint256"
        },
        {
          "indexed": false,
          "internalType": "string",
          "name": "name",
          "type": "string"
        },
        {
          "indexed": false,
          "internalType": "string",
          "name": "message",
          "type": "string"
        }
      ],
      "name": "NewMemo",
      "type": "event"
    },
    {
      "inputs": [
        {
          "internalType": "string",
          "name": "_name",
          "type": "string"
        },
        {
          "internalType": "string",
          "name": "_message",
          "type": "string"
        }
      ],
      "name": "buyCoffee",
      "outputs": [],
      "stateMutability": "payable",
      "type": "function"
    },
    {
      "inputs": [],
      "name": "getMemos",
      "outputs": [
        {
          "components": [
            {
              "internalType": "address",
              "name": "from",
              "type": "address"
            },
            {
              "internalType": "uint256",
              "name": "timestamp",
              "type": "uint256"
            },
            {
              "internalType": "string",
              "name": "name",
              "type": "string"
            },
            {
              "internalType": "string",
              "name": "message",
              "type": "string"
            }
          ],
          "internalType": "struct BuyMeACoffee.Memo[]",
          "name": "",
          "type": "tuple[]"
        }
      ],
      "stateMutability": "view",
      "type": "function"
    }
  ],
  "bytecode": "0x608060405234801561001057600080fd5b50600080546001600160a01b03191633179055610732806100326000396000f3fe6080604052600436106100295760003560e01c8063204206e11461002e578063865c517214610043575b600080fd5b61004161003c3660046104d8565b61006e565b005b34801561004f57600080fd5b50610058610215565b6040516100659190610584565b60405180910390f35b600034116100975760405162461bcd60e51b815260040161008e90610628565b60405180910390fd5b600080546040516001600160a01b03909116913480156108fc02929091818181858888f193505050501580156100d1573d6000803e3d6000fd5b506040805160808101825233815242602080830191825292820185815260608301859052600180548082018255600091909152835160049091027fb10e2d527612073b26eecdfd717e6a320cf44b4afac2b0732d9fcbe2b7fa0cf6810180546001600160a01b03939093166001600160a01b031990931692909217825592517fb10e2d527612073b26eecdfd717e6a320cf44b4afac2b0732d9fcbe2b7fa0cf784015590518051939491936101ad937fb10e2d527612073b26eecdfd717e6a320cf44b4afac2b0732d9fcbe2b7fa0cf8019291909101906103b8565b50606082015180516101c99160038401916020909101906103b8565b505050336001600160a01b03167fc56140e05f516509ae28110e0f72e17558a7561630dad2647c3ae87d986e365c42848460405161020993929190610676565b60405180910390a25050565b60606001805480602002602001604051908101604052809291908181526020016000905b828210156103af576000848152602090819020604080516080810182526004860290920180546001600160a01b031683526001810154938301939093526002830180549293929184019161028c906106ab565b80601f01602080910402602001604051908101604052809291908181526020018280546102b8906106ab565b80156103055780601f106102da57610100808354040283529160200191610305565b820191906000526020600020905b8154815290600101906020018083116102e857829003601f168201915b5050505050815260200160038201805461031e906106ab565b80601f016020809104026020016040519081016040528092919081815260200182805461034a906106ab565b80156103975780601f1061036c57610100808354040283529160200191610397565b820191906000526020600020905b81548152906001019060200180831161037a57829003601f168201915b50505050508152505081526020019060010190610239565b50505050905090565b8280546103c4906106ab565b90600052602060002090601f0160209004810192826103e6576000855561042c565b82601f106103ff57805160ff191683800117855561042c565b8280016001018555821561042c579182015b8281111561042c578251825591602001919060010190610411565b5061043892915061043c565b5090565b5b80821115610438576000815560010161043d565b600082601f830112610461578081fd5b813567ffffffffffffffff8082111561047c5761047c6106e6565b604051601f8301601f19908116603f011681019082821181831017156104a4576104a46106e6565b816040528381528660208588010111156104bc578485fd5b8360208701602083013792830160200193909352509392505050565b600080604083850312156104ea578182fd5b823567ffffffffffffffff80821115610501578384fd5b61050d86838701610451565b93506020850135915080821115610522578283fd5b5061052f85828601610451565b9150509250929050565b60008151808452815b8181101561055e57602081850181015186830182015201610542565b8181111561056f5782602083870101525b50601f01601f19169290920160200192915050565b60208082528251828201819052600091906040908185019080840286018301878501865b8381101561061a57888303603f19018552815180516001600160a01b031684528781015188850152868101516080888601819052906105e982870182610539565b915050606080830151925085820381870152506106068183610539565b9689019694505050908601906001016105a8565b509098975050505050505050565b6020808252602e908201527f596f75206e65656420746f20706179206d6f7265207468616e203020746f206260408201526d7579206d65206120636f6666656560901b606082015260800190565b60008482526060602083015261068f6060830185610539565b82810360408401526106a18185610539565b9695505050505050565b6002810460018216806106bf57607f821691505b602082108114156106e057634e487b7160e01b600052602260045260246000fd5b50919050565b634e487b7160e01b600052604160045260246000fdfea2646970667358221220840f4e9ad613f37a73b760c438bed00a312bb4a713033579344c7e30863f87de64736f6c63430008010033",
  "linkReferences": {},
  "deployedLinkReferences": {}
}